:020000040800F2
:100000000804002001010008690B0008610B0008CA
:10001000650B0008450A0008390F000800000000C1
:10002000000000000000000000000000AD0B000810
:10003000490A0008000000006B0B0008D70B0008FD
:100040001B0100081B0100081B0100081B01000820
:100050001B0100081B0100081B0100081B01000810
:100060001B0100081B0100081B0100081B01000800
:100070001B0100081B0100081B0100081B010008F0
:100080001B0100081B0100081B0100081B010008E0
:100090001B0100081B0100081B0100081B010008D0
:1000A0001B0100081B0100081B0100081B010008C0
:1000B0001B0100081B0100081B0100081B010008B0
:1000C0001B0100081B0100081B0100081B010008A0
:1000D0001B0100081B0100081B0100081B01000890
:1000E0001B0100081B0100081B010008DFF80CD0F1
:1000F00000F03AFC004800470538000808040020DA
:100100000648804706480047FEE7FEE7FEE7FEE7B1
:10011000FEE7FEE7FEE7FEE7FEE7FEE7D90B000895
:10012000ED000008F0B480EA0102D40F4200B2EB07
:10013000410F02D20246084611464A0042D0C30D82
:10014000DDB2C1F3C752AD1A202D35DAC1F3160165
:1001500041F4000204B15242C5F1200602FA06F150
:100160002A411044B3EBD05F23D0C4B1012DA0EBE2
:10017000C35009DCF0BC4FF0004202EAC352DBB2CC
:1001800000F5000000F0AEBA400000F1807000EB16
:10019000C350A0F1807040EAD170490009E04908DD
:1001A00041EAC071A0EBC35000F50000400800EB2D
:1001B000C350F0BC00F08DBA6142012202EB410154
:1001C000001BF6E7F0BC704781F00041AAE780F021
:1001D0000040A7E780EA010210B502F000434000AA
:1001E00022D04A001FD0010E01EB1261C0F356006D
:1001F000C2F3560240F4000042F40002A0FB0220C9
:1002000000047F39140400D0401C50EA124001D48D
:100210004000491EC2B20C0604EBD010401C40083E
:10022000802A02D003E0002010BD20F00100002948
:1002300000DA0020184310BD2DE9FE4F804681EA08
:100240000300C00F0C46009021F0004123F0004550
:10025000B8EB0200A94105D24046214690461C4613
:100260000B46024623F00040104347D0270DC7F34A
:100270000A00C3F30A510290401A019040286BDA39
:10028000C3F3130040F4801B0098924620B1002372
:10029000D2EB030A63EB0B0B01985946C0F1400205
:1002A000504600F0E5F906460D4650465946019A7B
:1002B00000F0FDF910EB08006141002487EA1152BB
:1002C00084EAE7731A4340D0009A62B3019A012A84
:1002D0004FEA075215DC001B61EB02014FF00042B0
:1002E00002EA0752CDE90042001C41F58011324676
:1002F0002B4600F052FA03B0BDE8F08F404621468D
:10030000F9E7001B61EB0201001C41F580130018A6
:100310005B412018A2F5001747EB030140EAD570B6
:10032000B6196D4111E06D084FEA360645EAC07511
:100330004FEA0752001B61EB0201001C41F58011DE
:1003400049084FEA30000019514132462B4603B0AC
:10035000BDE8F04F00F012BA0098012240000023DF
:10036000D0EB020263EBE073009821464FEAE074A1
:10037000B8EB000061EB0401E9E783F000435BE7C1
:1003800081F0004158E72DE9FE4F81EA030404F0B3
:10039000004421F0004100944FF0000B23F0004393
:1003A00050EA01045ED052EA03045BD0C3F30A545E
:1003B000C1F30A552C44A4F2F3340194A0FB025477
:1003C000C1F3130141F48011C3F3130343F4801309
:1003D00001FB024400FB034E840A970A44EA81545D
:1003E00047EA8357A4FB076802958D0A05FB07853A
:1003F0004FEA932C04FB0C542705029D4FEA065844
:1004000047EA1637B5EB08056EEB070C870E920E20
:1004100047EA811742EA8312A7FB0201B6EB0B0100
:1004200064EB00042B0D43EA0C335E1844EB1C50C4
:10043000DA465146E7FB0201C5F313044FEA0B33DA
:1004400043EA14534FEA0432019C43EA0603A4F141
:100450000C040294009CCDE900B400F09EF903B0B6
:10046000BDE8F08F00200146F9E72DE9F04D81EA63
:10047000030404F0004B21F0004514464FF0000A3D
:1004800023F0004150EA050220D054EA01021DD0B9
:10049000C5F30A570246C5F31303C1F31300C1F3B2
:1004A0000A5640F4801543F48013A7EB0608101B8E
:1004B000D64608F2FD3873EB050002D308F10108B7
:1004C00001E092185B41B8F1000F03DA0020014609
:1004D000BDE8F08D00204FF48011064684460EE002
:1004E000171B73EB050705D3121B63EB05030643CC
:1004F0004CEA010C49084FEA300092185B4150EA7F
:100500000107EDD152EA030012D082EA040083EA27
:100510000501084305D0101BAB4106D20122002380
:1005200006E000224FF0004302E06FF0010253109A
:100530001AEB06004CEB085110EB0A0041EB0B01E3
:10054000BDE8F04D00F01AB9C10F80EAE070084430
:10055000CA079623002100F0C5B80EB5C10F80EA86
:10056000E0700844CA07002140F233438DE80E00D2
:100570000A460B4600F011F903B000BD70B5C1F397
:100580000A5201F000450024C1F3130140F2FF3389
:1005900041F480119A4201DA002070BD40F23343E9
:1005A0009A42A2F2334203DC524200F070F800E0BB
:1005B00090402C43F1D0404270BD00F0004230F03A
:1005C00000400AD0C10D01F56071C0F3160042EA87
:1005D0000151C2084007114370470020014670478F
:1005E00030B5041E71F1000404DB4FF000444042BA
:1005F00064EB0101141E73F1000405DB1C464FF08F
:100600000043524263EB04038B4208BF824230BD79
:1006100001F0004330B421F0004150EA010206D05D
:100620000A0DA2F56072C1F31301002A02DC30BC8E
:1006300000207047440F44EAC104C100E01830BCF8
:1006400000EBC25000F045B8002801DBC0F10040CB
:10065000002901DBC1F1004181427047002801DB24
:10066000C0F10040002901DBC1F100418842704720
:10067000202A04DB203A00FA02F100207047914062
:10068000C2F1200320FA03F3194390407047202A57
:1006900004DB203A21FA02F00021704721FA02F32C
:1006A000D040C2F120029140084319467047202AE9
:1006B00006DBCB17203A41FA02F043EAE07306E08A
:1006C00041FA02F3D040C2F120029140084319469A
:1006D00070470029A8BF7047401C490008BF20F0A0
:1006E0000100704710B4B0FA80FC00FA0CF050EA38
:1006F000010404BF10BC704749B1CCF1200421FAB9
:1007000004F411FA0CF118BF012121430843A3EBB3
:100710000C01CB1D4FEA00614FEA102042BF0020C0
:1007200010BC704700EBC35010440029A4BF10BC9C
:100730007047401C490008BF20F0010010BC704702
:1007400010B541000CD0C0F3C751962908DC7E29B2
:1007500009DC06DB410204D000F0004040F07E508E
:1007600010BD002010BDC1F19604C4F1200100FAB3
:1007700001F1E040FFF7ADFFA04010BD10B5141E21
:1007800073F1000408DA401C41F1000192185B414A
:100790001A4301D120F0010010BD2DE9F04D924621
:1007A0009B4611B1B1FA81F202E0B0FA80F2203238
:1007B0009046FFF75DFF04460F4640EA0A0041EA13
:1007C0000B0153465A46084313D0114653EA010021
:1007D00019D0C8F140025046FFF759FF05460E46B2
:1007E000504659464246FFF743FF084305D00120D3
:1007F00004E020463946BDE8F08D0020054346EA76
:10080000E0762C4337430A986305E40AA0EB08001E
:100810000022FD0A44EA47540A3002D5002001466E
:10082000E9E7010510196941DDE908450019694149
:10083000BDE8F04DA2E770B521F0004303430CD0B2
:10084000C1F30A550024D5EB040564EB0403D61765
:10085000AD1AB34102DB0020014670BD201841EB08
:10086000025170BD2DE9F04D00231A461B1A8A4132
:1008700003DB00200146BDE8F08DC1F30A52C1F34D
:10088000130141F480154FF0000BD10702D100187D
:100890006D41521E0027044640F2FF11384601EB1D
:1008A000620A3E468046024600204FF48011FFF760
:1008B000EEFEC2197141BB1846EB0100B4EB030C0C
:1008C00075EB000C04D3E41A65EB000517460E46E1
:1008D000241908F101006D4180463428E3DDF9193F
:1008E00046EB0600091BA84103D24FF0FF32134626
:1008F00001E0002213461BEB070046EB0A51BDE85E
:10090000F04DFFF73BBF00F0004220F00040C10D6A
:10091000C0F3160040F400007F2901DA0020704780
:10092000962903DCC1F19601C84001E09639884060
:10093000002AF4D04042704730B5041E71F1000423
:1009400004DB4FF00044404264EB0101141E73F1DC
:10095000000405DB1C464FF00043524263EB0403E6
:10096000994208BF904230BD064C074D06E0E06852
:1009700040F0010394E8070098471034AC42F6D3E6
:10098000FFF7B8FB283D0008483D000830B480EA76
:10099000010202F0004530F0004221F0004013D087
:1009A00090B1C30DD40DC2F31601C0F31600E41AC2
:1009B00041F4000140F400027D34914201D3641CF3
:1009C00000E04900002C02DA30BC002070474FF4F0
:1009D00000000023914201D3891A034340084FEAE3
:1009E0004101F7D151B1914202D14FF0004105E0F0
:1009F00002D24FF0010101E06FF0010103EBC4509E
:100A0000284430BCFFF765BE420005D0C0F3C75292
:100A10005242914201DC0020704700EBC150704708
:100A2000962300221146FFF75DBE0EB540F233411A
:100A300002910021CDE900110A460B46FFF7ADFEF9
:100A400003B000BD00BFFEE770472DE9F04102464C
:100A500000250026002000230024002791F803C071
:100A60000CF00F0591F803C00CF0100CBCF1000F56
:100A700003D091F802C04CEA050591F800C0BCF122
:100A8000000F31D0146800202BE04FF0010C0CFA5D
:100A900000F3B1F800C00CEA03069E4220D18300A7
:100AA0004FF00F0C0CFA03F7BC4305FA03FC4CEAB9
:100AB000040491F803C0BCF1280F06D14FF0010CDB
:100AC0000CFA00FCC2F814C00AE091F803C0BCF1B3
:100AD000480F05D14FF0010C0CFA00FCC2F810C011
:100AE000401C0828D1D31460B1F800C0BCF1FF0F3E
:100AF00034DD546800202EE000F1080C4FF00108AE
:100B000008FA0CF3B1F800C00CEA03069E4221D1AA
:100B100083004FF00F0C0CFA03F7BC4305FA03FCFB
:100B20004CEA040491F803C0BCF1280F05D100F190
:100B3000080C08FA0CF8C2F8148091F803C0BCF154
:100B4000480F07D100F1080C4FF0010808FA0CF823
:100B5000C2F81080401C0828CED35460BDE8F08154
:100B600000BFFEE700BFFEE77047704729B1064AA5
:100B7000D2690243044BDA6104E0034AD26982433A
:100B8000014BDA61704700000010024029B1064AAB
:100B900092690243044B9A6104E0034A92698243DA
:100BA000014B9A6170470000001002407047042812
:100BB00008D14FF0E021096941F004014FF0E02233
:100BC000116107E04FF0E021096921F004014FF0C5
:100BD000E02211617047704710B51348006840F07B
:100BE00001001149086008464068104908400E4954
:100BF0004860084600680E4908400B4908600846EE
:100C0000006820F4802008600846406820F4FE0058
:100C100048604FF41F00886000F0A2FA4FF00060B7
:100C20000449086010BD0000001002400000FFF8F9
:100C3000FFFFF6FE08ED00E021B1028842F08002DD
:100C4000028004E002884FF67F731A4002807047EA
:100C500021B1028842F00102028004E002884FF6CE
:100C6000FE731A400280704770B5002400220023F2
:100C7000058C4FF6FE7635400584028C8388048B04
:100C80004FF68F752C40B51E2C400D882C43751ED9
:100C90002A400D892A434D882A43144DA8420BD07F
:100CA000134DA84208D0134DA84205D0124DA842BA
:100CB00002D0124DA84213D14FF6F7752A404D8944
:100CC0002A434FF6FB752A408D882A434FF6FF656D
:100CD0002B404FF6FF552B408D892B43CD892B435D
:100CE00083800483CD888586028470BD002C0140FA
:100CF00000340140004001400044014000480140F0
:100D00000A460021018B4FF6F77319401143018306
:100D10007047000070B5002400220023058C4FF6B8
:100D2000EF7635400584028C8388048B48F6FF7586
:100D30002C404FF6FF452C400D884FF6FF7606EA13
:100D400005252C434FF6DF752A400D8906EA051567
:100D50002A434D8806EA05152A43154DA84202D0BC
:100D6000144DA8421DD14FF67F752A404D894FF68C
:100D7000FF7606EA05152A434FF6BF752A408D888F
:100D800006EA05152A434FF6FF352B404FF2FF7553
:100D90002B408D8906EA85052B43CD8906EA85051A
:100DA0002B4383800483CD880587028470BD0000B7
:100DB000002C0140003401400A460021018B4FF213
:100DC000FF7319404FF6FF7303EA022319430183AF
:100DD0007047000070B5002400220023058C4FF6F8
:100DE000FF6635400584028C8388848B4FF68F75AF
:100DF0002C404FF6FC752C400D882C434FF6FF55C8
:100E00002A400D894FF6FF7606EA05252A434D88CC
:100E100006EA05252A43154DA84202D0144DA842E2
:100E20001DD14FF2FF752A404D894FF6FF7606EA35
:100E300005252A434FF6FF352A408D8806EA052509
:100E40002A434EF6FF752B404DF6FF752B408D89DA
:100E500006EA05152B43CD8906EA05152B43838049
:100E60008483CD888587028470BD0000002C0140FA
:100E7000003401400A460021818B4FF6F773194078
:100E8000114381837047818670470187704781874E
:100E900070470000002202881D4B98420ED01D4B67
:100EA00098420BD0B0F1804F08D01B4B984205D030
:100EB0001A4B984202D01A4B984204D14FF68F73C6
:100EC0001A404B881A43174B984207D0164B98424A
:100ED00004D04FF6FF431A40CB881A4302808B8818
:100EE00083850B8803850A4B98420BD0094B9842A7
:100EF00008D00E4B984205D00D4B984202D00D4BB6
:100F0000984201D10B7A0386012383827047000047
:100F1000002C014000340140000400400008004063
:100F2000000C004000100040001400400040014050
:100F3000004401400048014000BFFEE710B5042016
:100F4000FFF735FE4FF0E020006940F001004FF060
:100F5000E02108614720486110BD4FF47A71484391
:100F60004FF0E021096941F001014FF0E0221161E9
:100F700007E000BF4FF0E021096901F4803100294A
:100F8000F8D00100A0F10100F3D14FF0E021096990
:100F900021F001014FF0E022116170474FF0E02194
:100FA000096941F001014FF0E022116107E000BF43
:100FB0004FF0E021096901F480310029F8D00100E7
:100FC000A0F10100F3D14FF0E021096921F0010106
:100FD0004FF0E0221161704700B589B00121042073
:100FE000FFF7C4FD01210820FFF7D0FD01210846CD
:100FF000FFF7CCFD4FF4E070ADF8200018208DF81D
:10100000230003208DF8220008A91F48FFF71DFDCB
:10101000C720ADF8180041F61F40ADF814000020BD
:10102000ADF81A00ADF8160005A91848FFF732FF11
:101030006020ADF804000120ADF806000020ADF8F6
:101040000C0001A91148FFF70FFE08210F48FFF718
:1010500057FE01A90D48FFF75DFE08210C48FFF778
:10106000ABFE01A90948FFF7B5FE08210848FFF7C4
:1010700001FF01210548FFF7DFFD01210348FFF7CC
:10108000E7FD09B000BD0000000C01400008004071
:10109000002C01402DE9F05F82460C460B492046AA
:1010A000FFF740F88346FFF788FA07460022084B0F
:1010B000FFF7DBF90546FFF761FA81461FFA89F170
:1010C0000448FFF7E0FEBDE8F09F00000000344256
:1010D00000002240000800402DE9F05F82460C46E7
:1010E0000B492046FFF71EF88346FFF766FA0746CE
:1010F0000022084BFFF7B9F90546FFF73FFA814692
:101100001FFA89F10448FFF7C2FEBDE8F09F000016
:101110000000344200002240000800402DE9F05F4A
:1011200082460C460B492046FEF7FCFF8346FFF73C
:1011300044FA07460022084BFFF797F90546FFF7E8
:101140001DFA81461FFA89F10448FFF79EFEBDE8AB
:10115000F09F0000000034420000224000080040E0
:1011600010B500F001F810BD0CB500200190009002
:101170003348006840F480303149086000BF30488F
:10118000006800F4003000900198401C0190009825
:1011900018B90198B0F5A06FF1D12948006800F4A2
:1011A000003010B10120009001E000200090009874
:1011B000012843D12348006840F01000214908600D
:1011C0000846006820F0030008600846006840F008
:1011D000020008601A48406819494860084640689B
:1011E00048600846406840F48060486008464068AF
:1011F00020F47C1048600846406840F4E8104860DD
:101200000846006840F08070086000BF0C48006825
:1012100000F000700028F9D00948406820F0030071
:10122000074948600846406840F00200486000BF37
:101230000348406800F00C000828F9D10CBD0000FC
:1012400000100240002002400FB587B00A9806281F
:101250007ED005DC62D2DFE800F01062BFFDFCFB4F
:10126000092876D004DC072874D0082856D1FCE37E
:101270000B2870D06F28F9D1F8E3F7480C99FEF7E6
:10128000A9FF00900999FEF74DFF0190FFF795F92E
:10129000CDE90401F0480C99FEF79CFF00900899F5
:1012A000FEF740FF0190FFF788F9CDE90201DDE983
:1012B0000401CDE90001DDE90223079800F0AAFF4F
:1012C0000021079801F04CF86420FFF746FEE34840
:1012D0000C99FEF77FFF0690DF480C99FEF77AFF26
:1012E00003900999FEF71EFF0590DB480C99FEF765
:1012F00071FF03900899FEF715FF04904FF07C50A2
:1013000007210022CDE90021029004A90EC9079807
:1013100000F01CFF0121079801F022F8DDE2D0481F
:101320000C99FEF757FF00900999FEF7FBFE01901C
:10133000FFF743F9CDE90401C8480C99FEF74AFFCD
:1013400000900899FEF7EEFE0190FFF736F903E0F2
:10135000C4E2FDE336E3FCE3CDE90201DDE904018B
:10136000CDE90001DDE90223079800F053FF642076
:10137000FFF7F3FD0021079800F0F2FF6420FFF76C
:10138000ECFDB8480C99FEF725FF00900999FEF78F
:10139000C9FE0190FFF711F9CDE90401AF480C999E
:1013A000FEF718FF00900899FEF7BCFE0190FFF7CA
:1013B00004F9CDE90201DDE90401CDE90001DDE92F
:1013C0000223079800F026FF6420FFF7C6FD0121E5
:1013D000079800F0C5FFA1E7A0480C99FEF7FAFEB8
:1013E00000900999FEF79EFE0190FFF7E6F8CDE91F
:1013F00004019D480C99FEF7EDFE00900899FEF758
:1014000091FE0190FFF7D9F8CDE90201DDE9040171
:10141000CDE90001DDE90223079800F0FBFE002181
:10142000079800F09DFF6420FFF797FD8F480C9907
:10143000FEF7D0FE06908E480C99FEF7CBFE039087
:101440000999FEF76FFE05904FF082400C9902E07B
:10145000AEE117E165E0FEF7BDFE03900899FEF7E7
:1014600061FE04904FF07E506FF001010322CDE940
:101470000021029004A90EC9079800F0EDFD642038
:10148000FFF76BFD00200C99FEF7A4FE0090099970
:10149000FEF748FE0190FFF790F8CDE904014FF008
:1014A0007E500C99FEF796FE00900899FEF73AFEE2
:1014B0000190FFF782F8CDE90201DDE90401CDE9F1
:1014C0000001DDE90223079800F0A4FE6420FFF785
:1014D00044FD00200C99FEF77DFE00900999FEF76F
:1014E00021FE0190FFF769F8CDE9040161480C99EC
:1014F000FEF770FE00900899FEF714FE0190FFF7CA
:101500005CF8CDE90201DDE90401CDE90001DDE986
:101510000223079800F07EFE0121079800F020FFCB
:10152000FCE655480C99FEF755FE00900999FEF728
:10153000F9FD0190FFF741F8CDE904014FF080403B
:101540000C99FEF747FE00900899FEF7EBFD01901D
:10155000FFF733F8CDE90201DDE90401CDE900012F
:10156000DDE90223079800F055FE0021079800F0FE
:10157000F7FE3D480C99FEF72DFE06903F480C996A
:10158000FEF728FE03900999FEF7CCFD059036483A
:101590000C99FEF71FFE03900899FEF7C3FD049017
:1015A0004FF07E506FF002010322CDE9002102903E
:1015B00004A90EC9079800F04FFD2C480C99FEF7BE
:1015C00009FE06904FF082400C99FEF703FE03904F
:1015D0000999FEF7A7FD059023480C99FEF7FAFD3F
:1015E00003900899FEF79EFD04904FF07E506FF037
:1015F00001010322CDE90021029004A90EC9079838
:1016000000F02AFD4FF081400C99FEF7E3FD0090B9
:101610000999FEF787FD0190FEF7CFFFCDE90401A0
:1016200017480C99FEF7D6FD00900899FEF77AFD51
:101630000190FEF7C2FFCDE90201DDE90401CDE929
:101640000001DDE90223079800F0E4FD012107987D
:1016500000F086FE62E600000000E040000020414D
:101660000000A041000070C10000A0400000C04088
:1016700000006041000040410000884100007041CE
:101680000000A0C000200C99FEF7A4FD009009996D
:10169000FEF748FD0190FEF790FFCDE90401FE48FA
:1016A0000C99FEF797FD00900899FEF73BFD01901D
:1016B000FEF783FFCDE90201DDE90401CDE9000178
:1016C000DDE90223079800F0A5FD0021079800F04E
:1016D00047FEF2480C99FEF77DFD00900999FEF750
:1016E00021FD0190FEF769FFCDE90401EA480C995C
:1016F000FEF770FD00900899FEF714FD0190FEF7CB
:101700005CFFCDE90201DDE90401CDE90001DDE97D
:101710000223079800F07EFDE1480C99FEF75AFD80
:1017200000900999FEF7FEFC0190FEF746FFCDE917
:1017300004014FF080400C99FEF74CFD0090089991
:10174000FEF7F0FC0190FEF738FFCDE90201DDE97C
:101750000401CDE90001DDE90223079800F05AFDFC
:10176000CF480C99FEF736FD00900999FEF7DAFC98
:101770000190FEF722FFCDE90401CA480C99FEF75B
:1017800029FD00900899FEF7CDFC0190FEF715FFAA
:10179000CDE90201DDE90401CDE90001DDE9022323
:1017A000079800F037FD0121079800F0D9FDB5E555
:1017B000BD480C99FEF70EFD00900999FEF7B2FCAA
:1017C0000190FEF7FAFECDE904014FF080400C993C
:1017D000FEF700FD00900899FEF7A4FC0190FEF7CB
:1017E000ECFECDE90201DDE90401CDE90001DDE90E
:1017F0000223079800F00EFD0021079800F0B0FDCD
:10180000A7480C99FEF7E6FC0690A5480C99FEF750
:10181000E1FC03900999FEF785FC0590A2480C991C
:10182000FEF7D8FC03900899FEF77CFC04904FF07B
:101830007E5002210A1FCDE90021029004A90EC9A1
:10184000079800F083FC95480C99FEF7C3FC0090C4
:101850000999FEF767FC0190FEF7AFFECDE90401A0
:1018600091480C99FEF7B6FC00900899FEF75AFCD7
:101870000190FEF7A2FECDE90201DDE90401CDE908
:101880000001DDE90223079800F0C4FC83480C99AD
:10189000FEF7A0FC00900999FEF744FC0190FEF7CA
:1018A0008CFECDE904017F480C99FEF793FC009073
:1018B0000899FEF737FC0190FEF77FFECDE90201A3
:1018C000DDE90401CDE90001DDE90223079800F01C
:1018D000A1FC0121079800F043FD6EE36E480C99CE
:1018E000FEF778FC00900999FEF71CFC0190FEF7CA
:1018F00064FECDE904014FF080400C99FEF76AFCCC
:1019000000900899FEF70EFC0190FEF756FECDE917
:101910000201DDE90401CDE90001DDE902230798B8
:1019200000F078FC0021079800F01AFD5C480C9943
:10193000FEF750FC06905A480C99FEF74BFC0390BA
:101940000999FEF7EFFB059058480C99FEF742FC09
:1019500003900899FEF7E6FB04904FF07E506FF07D
:1019600003010322CDE90021029004A90EC90798C2
:1019700000F072FB49480C99FEF72CFC0090099985
:10198000FEF7D0FB0190FEF718FECDE904014848B0
:101990000C99FEF71FFC00900899FEF7C3FB01901D
:1019A000FEF70BFECDE90201DDE90401CDE90001FE
:1019B000DDE90223079800F02DFC0121079800F0D3
:1019C000CFFCFAE235480C99FEF704FC0090099927
:1019D000FEF7A8FB0190FEF7F0FDCDE904014FF002
:1019E00080400C99FEF7F6FB00900899FEF79AFBF1
:1019F0000190FEF7E2FDCDE90201DDE90401CDE948
:101A00000001DDE90223079800F004FC002107989B
:101A100000F0A6FC21480C99FEF7DCFB0090099928
:101A2000FEF780FB0190FEF7C8FDCDE904011D48DB
:101A30000C99FEF7CFFB00900899FEF773FB01901D
:101A4000FEF7BBFDCDE90201DDE90401CDE90001AE
:101A5000DDE90223079800F0DDFB00210998FEF77D
:101A600061FB0190FEF7A9FD01E02DE010E1CDE959
:101A700004014FF080400C99FEF7ACFB00900899F0
:101A8000FEF750FB0190FEF798FDCDE90201DDE97C
:101A90000401CDE900010DE0000020410000A0415B
:101AA0000000C040000040410000A0400000E040B5
:101AB00000003041DDE90223079800F0ABFB012173
:101AC000079800F04DFC78E2FE480C99FEF782FB87
:101AD00000900999FEF726FB0190FEF76EFDCDE917
:101AE0000401F9480C99FEF775FB00900899FEF780
:101AF00019FB0190FEF761FDCDE90201DDE904016A
:101B0000CDE90001DDE90223079800F083FB002105
:101B1000079800F025FCEC480C99FEF75BFB06905B
:101B2000EA480C99FEF756FB03900999FEF7FAFA7A
:101B30000590E5480C99FEF74DFB03900899FEF7D8
:101B4000F1FA04904FF07E504FF0FF31042201E093
:101B500030E048E1CDE90021029004A90EC90798C0
:101B600000F07AFAD8480C99FEF734FB0690D64874
:101B70000C99FEF72FFB03900999FEF7D3FA059015
:101B8000D1480C99FEF726FB03900899FEF7CAFA94
:101B900004904FF07E5002218A1FCDE9002102906F
:101BA00004A90EC9079800F0D1FA0121079800F0A6
:101BB000D7FB02E2C6480C99FEF70CFB009009998E
:101BC000FEF7B0FA0190FEF7F8FCCDE90401C14838
:101BD0000C99FEF7FFFA00900899FEF7A3FA01901E
:101BE000FEF7EBFCCDE90201DDE90401CDE90001DE
:101BF000DDE90223079800F00DFB0021079800F0B3
:101C0000AFFBB1480C99FEF7E5FA0690AF480C9986
:101C1000FEF7E0FA03900999FEF784FA0590AE48C2
:101C20000C99FEF7D7FA03900899FEF77BFA049017
:101C30004FF07E5000210422CDE90021029004A93A
:101C40000EC9079800F008FA9F490998FEF76AFA4A
:101C50000190FEF7B2FCCDE904019B480C99FEF718
:101C6000B9FA00900899FEF75DFA0190FEF7A5FC1D
:101C7000CDE90201DDE90401CDE90001DDE902233E
:101C8000079800F0C7FA0121079800F069FB94E17A
:101C90000021079800F064FB002190480A46904B11
:101CA000CDE90010079800F0B5FA00218D480A46EA
:101CB0008D4BCDE90010079800F0ACFA00218B485D
:101CC0000A46894BCDE90010079800F0A3FA0021DD
:101CD00086480A46864BCDE90010079800F09AFA2C
:101CE000002184480A46824BCDE90010079800F095
:101CF00091FA00207F4902467B4BCDE9000107980D
:101D000000F088FA00217C480A46774BCDE90010A4
:101D1000079800F07FFA002177480A46744BCDE916
:101D20000010079800F076FA002174480A46704BBC
:101D3000CDE90010079800F06DFA00216F480A46BF
:101D4000694BCDE90010079800F064FA00206C4957
:101D50000246654BCDE90001079800F05BFA0021CF
:101D600067480A46624BCDE90010079800F052FA26
:101D7000002164480A465E4BCDE90010079800F048
:101D800049FA00205F490246574BCDE90001079808
:101D900000F040FA00215C480A46534BCDE90010A0
:101DA000079800F037FA002157480A46504BCDE912
:101DB0000010079800F02EFA002154480A46544BB0
:101DC000CDE90010079800F025FA00215148524A49
:101DD000524BCDE90010079800F01CFA0221079839
:101DE00000F0BEFAE9E039480C99FEF7F3F90090EB
:101DF0000999FEF797F90190FEF7DFFBCDE90401A1
:101E000031480C99FEF7E6F900900899FEF78AF937
:101E10000190FEF7D2FBCDE90201DDE90401CDE935
:101E20000001DDE90223079800F0F4F9002107988A
:101E300000F096FA0C98FEF7C0FB394A394BCDE911
:101E40000001FEF7A0FACDE90201FEF7E1FB0690E2
:101E50001E480C99FEF7BEF903900999FEF762F946
:101E6000059019480C99FEF7B5F903900899FEF70B
:101E700059F904904FF07E504FF0FF310122CDE927
:101E80000021029004A90EC9079800F05FF9C8204C
:101E9000FFF763F80121079800F062FA0A480C99ED
:101EA000FEF798F900900999FEF73CF90190FEF7CA
:101EB00084FBCDE9040104480C99FEF78BF90090EE
:101EC000089931E0000020410000A040000070416E
:101ED00000003041000010410000E0400000474099
:101EE0000080514000804540004050400080484004
:101EF0000000144000804640000044400080414003
:101F000000003E40000039400000344000004640E0
:101F100000004E4000804740CDCCCCCCCCCC5240D1
:101F20009A9999999999B93FFEF7FCF80190FEF7B3
:101F300044FBCDE90201DDE90401CDE90001DDE961
:101F40000223079800F066F90021079800F008FACC
:101F50000C98FEF732FB1A4A1A4BCDE90001FEF746
:101F600012FACDE90201FEF753FB069016480C99D0
:101F7000FEF730F903900999FEF7D4F8059012485E
:101F80000C99FEF727F903900899FEF7CBF8049017
:101F90004FF07E504FF0FF310122CDE90021029039
:101FA00004A90EC9079800F0D1F8C820FEF7D5FFA4
:101FB0000121079800F0D4F900BF00BF0BB000BDAD
:101FC0009A9999999999B93F0000A0402DE9F04F4D
:101FD0008DB014461D46DDE91689DDE918672246F5
:101FE0002B4600204FF08041FEF7CDF98246324665
:101FF0003B46FEF7C8F942464B46CDE9080140464C
:102000004946FEF7C0F932463B46CDE90401304669
:102010003946FEF7B8F922462B46CDE900012046A5
:102020002946FEF7B0F98246DDE90023FEF704F900
:10203000CDE90201DDE90423FEF79FF9CDE90601B0
:10204000DDE90823FEF711FACDE90A0100F052FF9D
:102050000DB0BDE8F08F00002DE9FF4F87B00746B7
:1020600014461D462A480690002600BF1498FEF725
:102070006BFA31460190FEF755F8834600F014FBE9
:1020800082462946FEF7A6F881462146FEF74AF821
:102090008046FEF792FACDE904011498FEF754FA4F
:1020A00031460190FEF73EF8834600F0F7FA82468B
:1020B0002946FEF78FF881460899FEF733F88046E7
:1020C000FEF77BFACDE90201DDE90401CDE900016B
:1020D0003846DDE9022300F09DF830460699FEF708
:1020E00021F806460120FEF738FF1598FEF72CFA76
:1020F00081461498FEF728FA82463146FEF712F818
:1021000080464946FEF7AAFAB0D30BB0BDE8F08F7F
:10211000CDCC4CBD2DE9F05F83468A465046FEF794
:102120004CFA8046064A074BFEF79FF90646002206
:10213000054BFEF728F90446FEF76AFABDE8F09F62
:102140004AD8124DFB210940008066402DE9FF4F1F
:1021500087B0074614461D462D480690002600BF4E
:102160001498FEF7F1F931460190FDF7DBFF834645
:1021700000F09AFA82462946FEF72CF8814621465D
:10218000FDF7D0FF8046FEF718FACDE90401149858
:10219000FEF7DAF931460090FDF7C4FF834600F000
:1021A0007DFA824629461698FEF714F851460190AA
:1021B000FEF710F881460899FDF7B4FF8046FEF758
:1021C000FCF9CDE90201DDE90401CDE90001384661
:1021D000DDE9022300F01EF830460699FDF7A2FF64
:1021E00006460120FEF7B9FE1598FEF7ADF98146C7
:1021F0001498FEF7A9F982463146FDF793FF804611
:102200004946FEF721FAABD90BB0BDE8F08F0000CC
:10221000CDCC4C3E2DE9F04F8FB0824616461F467E
:10222000DDE91889DAE9080132463B46CDE90801C3
:10223000FEF7A6F8CDE90C01DAE90A0142464B4661
:10224000CDE90801FEF79CF8CDE90A01DDE90A2392
:1022500010461946FEF797F8CDE90201DDE90C2397
:1022600010461946FEF78FF8CDE90001DDE902239B
:10227000FDF7E2FFCDE9040101F018FC0022364B26
:10228000CDE90601FEF77FF8CDE9080101F04CFA2F
:1022900004460D460022314B20462946FEF7A0F9A0
:1022A00001D200242D4D4FF0000B43E05846FEF7BD
:1022B00054F9CDE90001DDE90A23FEF764F822466E
:1022C0002B46CDE90201FEF7D0F8CDE90401DAE9A9
:1022D0000A01CDE90201DDE90423FDF7ADFFCDE9F7
:1022E00008015846FEF739F9CDE90001DDE90C2374
:1022F000FEF749F822462B46CDE90201FEF7B5F874
:10230000CDE90401DAE90801CDE90201DDE90423A0
:10231000FDF792FFCDE90601DDE90801CDE90001F5
:102320005046DDE9062300F03BF86420FEF736FE58
:102330000BF1010B5846FEF710F922462B46CDE96A
:102340000801FEF74DF9B1D9CAE90867CAE90A8957
:102350000FB0BDE8F08F0000000010400000F03F1B
:102360002DE9F04105460E4626B1012E04D0022E7D
:1023700006D103E0372403E00A2401E0002400BF73
:1023800000BF2046FEF7E0F80746394605F1300069
:10239000FEF7A2FE6420FEF7E0FDBDE8F08100003C
:1023A0002DE9FF5F96B08246DAF80C00FEF7D5F80B
:1023B000CDE90A01DDE91823FDF7E2FF04460D46E9
:1023C000DAF81000FEF7C9F8CDE90A01DDE92423A7
:1023D000FDF7D6FF06460F4632463B4630463946A5
:1023E000FDF7D1FF22462B46CDE9080120462946BC
:1023F000FDF7C9FFCDE90601DDE90823FDF71CFF64
:10240000CDE90A0101F052FB8046894622462B465F
:102410003046394600F0BCFFCDE91401DAF804007B
:10242000FEF79BF8CDE90A01DAF80000FEF795F80F
:10243000CDE90289CDE90801DDE90A01CDE9000114
:102440005046DDE90823FFF7C1FDCDE91201DDE9C2
:102450001223DDE91401FDF7EFFECDE90A01FEF7D5
:10246000D7F801460C905046FFF754FE0D900AF144
:1024700034000D99FEF70EFEDAF80000FEF76DF855
:10248000CDE90A01DAF80400FEF767F8CDE9028920
:10249000CDE90801DDE90A01CDE900015046DDE999
:1024A0000823FFF793FDCDE91201DDE91223DDE9F1
:1024B0001401FDF762FF5E4A5E4BCDE90001FDF7B6
:1024C000BBFE5D4A5D4BCDE90201FDF7B5FECDE9EE
:1024D000040101F01DF8CDE90801DAF80800FEF763
:1024E0003CF8CDE90601DDE90823FDF74CFFCDE915
:1024F0000A01DDE91823FDF79FFECDE91001DDE9B2
:102500001223DDE91401FDF738FF494A494BCDE9B3
:102510000001FDF791FE484A484BCDE90201FDF765
:102520008BFECDE9040101F0ADF9CDE90801DAF83F
:102530000800FEF712F8CDE90601DDE90823FDF7F2
:1025400022FFCDE90A01DDE92423FDF775FECDE97F
:102550000E01DAF81400FEF700F8CDE90A01DDE912
:102560001023FDF70DFF04460D46DAF81800FDF7BD
:10257000F4FFCDE90A01DDE90E23FDF701FF064670
:102580000F4632463B4630463946FDF7FCFE2246B2
:102590002B46CDE9080120462946FDF7F4FECDE99A
:1025A0000601DDE90823FDF747FECDE90A0101F048
:1025B0007DFA8046894622462B463046394600F051
:1025C000E7FECDE91401DAE90112881AFDF7C5FF2B
:1025D000CDE90A01DAF80000FDF7BFFFCDE9028975
:1025E000CDE90801DDE90A01CDE900015046DDE948
:1025F0000823FFF7EBFCCDE91201DDE91223DDE949
:102600001401FDF7BAFECDE90A01FEF701F8014613
:102610000C905046FFF77EFD834659460AF138007C
:10262000FEF77CFD6420FEF7B9FC1AB0BDE8F09F10
:10263000AC1C5A643BDFE33F4AD8124DFB210940F2
:102640001CB5044623202060392060600D20A06066
:102650001620E0606FF0180020612F2060616FF09D
:102660001800A06100210B48C4E908100A48C4E919
:102670000A100A46074BCDE900102046FFF7CAFDB5
:1026800001212046FFF76CFE6420FEF766FC204621
:102690001CBD0000008041400000494010B50446C8
:1026A000204600F083FF10BD10B50446204601F01F
:1026B00039F910BD490050EAC12018BF04204A0D65
:1026C00018BF40F0010040F2FF72B2EB515F08BF4B
:1026D00040F00200012808BF0520704741000802B1
:1026E00018BF04200A0E18BF40F001004FF07F42CF
:1026F00032EA010108BF40F00200012808BF0520AE
:10270000704700002DE9F74F144694B00021C4E94A
:1027100002111599079121F00045C9498D4206DC47
:102720001599C4E9000117B00020BDE8F08FC54934
:10273000DFF814A3A9423CDD0799C44E0029C44F19
:10274000C44A1599534619DDFDF717FE554506D0C5
:10275000C14AC24BFDF711FEC4E900010AE04FF087
:10276000D352BE4BFDF709FE32463B46FDF705FE50
:10277000C4E9000117B00120BDE8F08FFDF75CFD52
:10278000554506D0B44AB54BFDF756FDC4E90001E6
:102790000AE04FF0D352B14BFDF74EFD32463B46B7
:1027A000FDF74AFDC4E9000117B04FF0FF30BDE866
:1027B000F08FAB49A942159978DB21F0004183469F
:1027C0008846A84AA84BFDF7DEFD0022A74BFDF77F
:1027D00033FDFDF7D3FE0990FDF7BFFE06460F4619
:1027E0009C4A5346FDF7CFFD43465A46FDF7C8FDC8
:1027F00080468A46984A994B30463946FDF7C3FDD4
:102800002A0D01250B9242465346FDF7B9FD032DD3
:10281000C4E9000139D00B98C1F30A51401A05EB05
:1028200045111139814230DA9148C346784400EBB2
:102830000510CDF80CA00C90D0E9002330463946A5
:10284000FDF7A1FD02460B460491069058460399F8
:10285000FDF793FD80468A4602460B46584603998B
:10286000FDF78BFD049B069AFDF787FD83460C98C8
:1028700003913946D0E902233046FDF784FD5A46DC
:10288000039BFDF77AFD6D1CBDE707980028A2BFEA
:10289000099817B0BDE8F08F616881F00041616070
:1028A000099817B04042BDE8F08FFFE784461598BD
:1028B000C1F31301C0F30A50A0F2F5304FEA6018DB
:1028C00000F01F06C6F1200013900020069007902C
:1028D00041F4801E05206D4676B1664A08EB000182
:1028E0007A4452F8213002EB8101B3404A681399CF
:1028F00022FA01F1194305E05F4908EB000279442F
:1029000051F82210A1FB0E27A1FB0C131A449A4286
:1029100034BF0123002303EB070A05EB8003D3E94F
:1029200001B70F448F4234BF0121002193448B44EF
:1029300011B1934502D903E0934501D2012100E092
:102940000021C3E901B7514445F82010011EA0F150
:102950000100C1DC0298059F00F10050800F129029
:102960000298DDE903568000FDF7F7FD834628460F
:102970000D91FEF75AF86FF01D02FDF75CFFCDE9EF
:102980000E013046FEF751F86FF03D02FDF753FFA0
:1029900080468A463846FEF748F86FF05D02FDF73C
:1029A0004AFF0746424653461191FDF745FCDDE9D3
:1029B0000E23FDF741FC5A460D9BFDF73DFC00251B
:1029C0000E465A4628460D9BFDF7D7FCDDE90E233F
:1029D000FDF7D3FC42465346FDF7CFFC3A46119B28
:1029E000FDF7CEFCDFF898A0244A5346FDF7CBFC58
:1029F00007468846234A244B31462846FDF7C3FC48
:102A00003A464346FDF718FC074688464FF0A84271
:102A1000534631462846FDF7B6FC3A464346FDF795
:102A20000BFC159A12F0004F04D0129A81F000416D
:102A300052421292C4E90001129817B0BDE8F08F1B
:102A4000FB21E93F7CD90240FB21F93F7370032E43
:102A50008A19A33B000040543163621A61B4D03D2F
:102A6000FB21394183C8C96D305FE43F0000E03F7E
:102A7000E81300006413000046130000182D4454AE
:102A8000FB21F93D3326A611460B113C2DE9FF4DE4
:102A900021F0004807460C46B8F1795F08DAFDF7E7
:102AA0006DFD002801BF0020324904B0BDE8F08D63
:102AB0003A46234610461946FDF765FC0546024690
:102AC0002D480E460B460621784400F05DF82A4654
:102AD0003346FDF758FCDDE9022382468B46384633
:102AE0002146FDF750FC04460F4652465B462846F9
:102AF0003146FDF748FC22463B46FDF73EFC0746C3
:102B00008A464FF0FF3228463146FDF794FE1B4AB5
:102B100090450ADA3A465346FDF72FFC04B00022EE
:102B2000BDE8F04D134BFDF72BBC154A4245A8BF3D
:102B3000A8F500154FF00004B8BF124D22462B46F1
:102B4000FDF71BFC0646884622462B460020094915
:102B5000FDF713FC04460D463A46534630464146BF
:102B6000FDF70BFC04B022462B46BDE8F04DFDF707
:102B700007BC00000000F03F141100003333D33FC6
:102B80000000E93F0000D23F2DE9F0414F1E00EB6D
:102B9000C7010446D1E9000115461E4637F006027A
:102BA0000DD02A463346FDF7EEFB7F1E04EBC7032C
:102BB000D3E90023FDF740FB37F00602F1D1022FE5
:102BC00025D0042F13D0062F18BFBDE8F0812A4668
:102BD0003346FDF7D8FBD4E90A23FDF72DFB2A463F
:102BE0003346FDF7D0FBD4E90823FDF725FB2A4641
:102BF0003346FDF7C8FBD4E90623FDF71DFB2A4643
:102C00003346FDF7C0FBD4E90423FDF715FB2A4644
:102C10003346FDF7B8FBD4E90223FDF70DFB2A4646
:102C20003346FDF7B0FBD4E90023BDE8F041FDF7E2
:102C300003BB00002DE9FF4D054621F0004084B0A4
:102C40000C46B0F1795F0BDA2846FFF733FD042814
:102C500008BF00F071F8284608B02146BDE8F08DA5
:102C60002A460B461046FDF78EFB06460F462A46BF
:102C70002346FDF788FB804626488A4632463B4677
:102C800005217844FFF780FF83461098029160B3D6
:102C9000214A224B40465146FDF775FBCDE9000124
:102CA0005A4640465146029BFDF76DFB82468846D8
:102CB000DDE906014FF0FF32FDF7BDFD5246434608
:102CC000FDF75BFB32463B46FDF75DFBDDE9062386
:102CD000FDF753FBDDE90023FDF74FFB08B02A4663
:102CE0002346BDE8F04DFDF74BBB0B465A46304638
:102CF0003946FDF748FB084A084BFDF79DFA424666
:102D00005346FDF740FB08B02A462346BDE8F04D88
:102D1000FDF792BA7A100000495555555555C5BF73
:102D20000122FDF788BDFDF787BA00221346104641
:102D30001146FDF79ABB0000024A00201107FDF77B
:102D40007ABD000001FDFFFF0121FDF75DBE0021FE
:102D50000846FDF71BBE6FF05E010807FDF754BE85
:102D60002DE9F04D0D4614464FF07F41B1EB440F75
:102D70009EBF4FF0FF312960BDE8F08D4FF000405D
:102D800040EA0421C4F3C750783810F01F024A4BC0
:102D90004FEA601CC2F120067B44C4F3C750A0F187
:102DA00078004FEA601003EB800053F82C3008BF26
:102DB000D0E901C612D0D0F804C093402CFA06F72F
:102DC0003B4387680CFA02FC27FA06F8C06807FA4A
:102DD00002F2F0404CEA080C42EA0006A3FB013282
:102DE000ACFB01C0A6FB016101EB0C068E4234BFB7
:102DF0004FF0010C4FF0000CC1186144BCF1000F02
:102E000002D0814202D903E0814201D2012000E0D8
:102E10000020104400F120024FEA92188006CA0CEC
:102E200040EA42304F03C5F80080FDF78DFB824633
:102E30003846FDF7F5FD6FF01201FDF7E5FD074699
:102E40003046FDF7EDFD6FF02501FDF7DDFD834612
:102E500039465046FDF766F95946FDF763F900F526
:102E600000666FF30B0651463046FDF7ADF9394663
:102E7000FDF7AAF95946FDF7AAF91049FDF7AAF995
:102E800007460F493046FDF7A5F93946FDF74AF9DF
:102E900007460C493046FDF79DF93946FDF742F9E2
:102EA00014F0004F08BFBDE8F08DC8F1805180F0EC
:102EB00000402960BDE8F08D440F0000DB0FC92FF2
:102EC00022AAFD290000C92F02E008C8121F08C16C
:102ED000002AFAD170477047002001E001C1121F9B
:102EE000002AFBD1704700000149086070470000CC
:102EF000000000202DE9F04D0546DFF8388221F072
:102F000000408D4F82B00C46404520DBA0EB08010D
:102F100029430BD08949884201DC10D17DB102B030
:102F200028462146BDE8F04DFFF7FABE002CC7BF8A
:102F3000002001468248394602B0BDE8F08D0120EC
:102F4000FFF7D2FF02B0BDE8F04DFFF7EEBE7D49BE
:102F5000884244DA7C498142A1BF79487B4902B06A
:102F6000BDE8F08D2A46234610461946FDF70BFAB8
:102F70008346024676480E460B4606217844FFF704
:102F800003FE5A463346FDF7FEF9074671488A4666
:102F90005A46334604217844FFF7F6FD5A46334635
:102FA000FDF7F1F900224346FDF746F902460B46CC
:102FB00038465146FDF759FA2A462346FDF7E3F90C
:102FC000654A664BFDF7DCF92A462346FDF7D8F93A
:102FD00002B05B4ABDE8F04D5C4BFDF7D1B9002C67
:102FE0004FF000024BDA4646434628462146FDF79D
:102FF00023F94FF0FF32FDF71EFC04460246584805
:103000000D460B4606217844FFF7BEFD22462B46AF
:10301000FDF7B9F9804653488A4622462B460421DB
:103020007844FFF7B1FD22462B46FDF7ACF90022AC
:103030003346FDF701F906468B462046294600F047
:1030400035FD04460D4632465B4640465146FDF787
:103050000CFA22462B46FDF796F93F4A3F4BFDF707
:103060008CF922462B46FDF7E7F80122FDF7E3FB3A
:1030700002B03B46BDE8F04D314AFDF781B92D4B1A
:1030800028462146FDF77CF94FF0FF32FDF7D3FBD0
:1030900005460E4600F00AFD00270C4680463A46DB
:1030A0000B46FDF7C9F882468B463A462346104642
:1030B0001946FDF768F92A463346FDF761F952468D
:1030C0005B46FDF7D2F9824627488B462A463346AF
:1030D00006217844FFF758FD2A463346FDF753F999
:1030E000CDE9000121482A46334604217844FFF700
:1030F0004BFD2A463346FDF746F900220D4BFDF7FE
:103100009BF802460B46DDE90001FDF7AEF94246A9
:103110002346FDF738F952465B46FDF78DF83A46EF
:103120002346FDF789F802B00122BDE8F04DFDF716
:1031300082BB00000000F03FFB2109400000F07F4F
:10314000182D44540000E03F0000603CFB21F93F93
:10315000780B00008E0B0000075C143326A6913C10
:10316000EE0A0000040B0000220A0000380A0000EA
:103170002DE9F84F04460D4621F0004000917349B7
:10318000814211DC7249884201DC06D12CB1204613
:103190002946BDE8F84FFFF7C3BD6E48002DCCBFF0
:1031A0006D496E49BDE8F88F6D49814211DD6D4969
:1031B0008142D8BF4FF0FF366DDD20462946FFF72C
:1031C00079FA042808BFFFF7B7FD20462946BDE875
:1031D000F88F6549654F25F00045814233DD64492C
:1031E000814219DD002632464FF0804320462946B1
:1031F000FDF722F880468A46012220462946FDF73F
:103200001AFB00223B46FDF7B8F842465346FDF74D
:103210002CF904460D463EE001260022BA463B4604
:1032200020462946FDF708F880460F4600225346FF
:1032300020462946FDF7A1F842463B46FDF715F921
:1032400004460D4627E04B4981421BDDDFF828A1EB
:1032500002260022534620462946FDF794F8002214
:103260003B46FCF7E9FF80460F46002253462046C6
:103270002946FDF782F842463B46FDF7F6F804463C
:103280000D4608E0032622462B4600203B49FDF769
:10329000ECF804460D4622462B4610461946FDF72B
:1032A00072F88B46824602460B46FDF76CF80746DD
:1032B0000246334888460B4606217844FFF764FCF3
:1032C00052465B46FDF75FF882462E488B463A46EB
:1032D000434605217844FFF757FC3A464346FDF73D
:1032E00052F802460B46002E504659460CDAFCF7BF
:1032F000A3FF22462B46FDF746F801B022462B4697
:10330000BDE8F04FFDF73CB8FCF796FF22462B4690
:10331000FDF739F81C4A7A4402EBC603D3E90023CF
:10332000FDF72BF822462B46FDF727F8174A7A447B
:1033300002EBC603D3E90023FDF722F8009A002A26
:10334000B8BF81F00041BDE8F88F000000001044D4
:103350000000F07F182D4454FB21F93FFB21F9BFF9
:103360000000DC3F0000203E0000F33F0000F03F83
:103370000000E63F008003400000F83F0000F0BF7F
:10338000F2080000B00800004E0800001608000017
:103390002DE9F04D9446CCF1000423F000464CEAB0
:1033A0000404524F46EAD4749A46884621F00042FB
:1033B000BC4206D8454240EA050442EAD474BC4205
:1033C00004D9BDE8F04D6246FFF7ADBCAAF1405507
:1033D000A5F17F6555EA0C040BD0022404EAAA7417
:1033E000434DDFF810E144EAD87452EA000B04D0F0
:1033F0000CE0BDE8F04DFFF7BBBE002C14BF012C64
:10340000BDE8F08D022C30D0032C32D056EA0C0BE4
:103410000AD0BE4220D1BA4209D126F0804622F01D
:1034200080423346114617E000291ADB25E0DFF819
:10343000C8B0FB44002C04BFDBE90001BDE8F08DFF
:10344000012C02BFDBE9000181F00041BDE8F08DF5
:10345000022C0AD0032C0CD0BA4212D1B8F1000FC2
:103460000BDA23482549BDE8F08D28462449BDE8FC
:10347000F08D28467146BDE8F08D1D482149BDE814
:10348000F08D921B12153C2AC4BF19481D490EDC51
:10349000BAF1000FBEBF12F13C0F0020014606DB5F
:1034A0006246FCF7E2FF21F00041FFF761FE002CCD
:1034B00008BFBDE8F08D012C04BF81F00041BDE8DC
:1034C000F08D114A114B022C07D0FCF756FF2A460B
:1034D000BDE8F04D0A4BFCF750BFFCF74EFF2A4603
:1034E000BDE8F04D064BFCF74BBF00000000F07F3D
:1034F000182D4454FB2109C0DA070000FB21F9BF55
:10350000FB210940FB21F93F075C143326A6A13CAF
:1035100000B5244B21F0004287B09A42DCBF002264
:10352000134629DD204B9A4208D140B94FF00100E3
:10353000FFF7DAFCFFF7F9FB07B000BD03DBFFF78D
:10354000EFFB07B000BD02AAFFF7DCF810F00301A3
:1035500004BF0DF1080C9CE80F000DD001200129DB
:103560000ED0022914D00DF1080C00909CE80F0039
:10357000FFF760FB07B000BDFFF788FA07B000BD9A
:103580000DF1080C00909CE80F00FFF753FB05E0DD
:103590000DF1080C9CE80F00FFF778FA07B081F0F6
:1035A000004100BDFB21E93F0000F07F2DE9F84319
:1035B000044602464F486946B0EB420F09D94FF026
:1035C000E640B0EB420F94BF00204FF0FF30009078
:1035D00030E0494B22F00040834271D947492046F0
:1035E000FCF7F8FDFDF7ACF88046FDF78CF900F02C
:1035F0000300009042494046FCF7ECFD0546414976
:103600004046FCF7E7FD06463F494046FCF7E2FD31
:1036100007463E494046FCF7DDFD2146FCF7D7FD55
:103620003946FCF7D1FD3146FCF7CEFD2946FCF7C3
:10363000CBFD04462546009C002C45DB294614F0B2
:10364000010F08461CD0FCF7C5FD06463049FCF7C3
:10365000C1FD3049FCF7BBFD3146FCF7BBFD2E49EF
:10366000FCF760FD3146FCF7B5FD2946FCF7B2FDDD
:103670002946FCF757FD14F0020F1CD0BDE8F88373
:10368000FCF7A8FD05462549FCF7A4FD2449FCF7F5
:1036900049FD2946FCF79EFD2249FCF743FD2946DA
:1036A000FCF798FD4FF07E51FCF73CFD14F0020F43
:1036B00008BFBDE8F88380F00040BDE8F883FFE76D
:1036C0001046FFF74DFBB4E76800B0F17F4F3CBFF9
:1036D0004FF07E50BDE8F88307D14FF00100FFF7AF
:1036E00003FCBDE8F843FFF732BB2846BDE8F843CA
:1036F000FFF72ABBB61F927E490E494683F9223F47
:103700001A61342C0020A23300A0FD390000C93F0B
:10371000336D4C39DA82083CA0AA2ABEB93AB2BA53
:10372000CA9F2A3DDDFFFFBE2DE9F041C1F30A52D9
:10373000A2F2FF362F4A304B0D460446142E2FDAE4
:10374000002E12DAFCF778FD00221346FDF7F4F89C
:103750004CD2002DA4BF0024254647DA25F00040B6
:10376000204318BF254D41D018E0DFF894C02CFA53
:1037700006F705EA070C5CEA040C08BFBDE8F08117
:10378000FCF75AFD00221346FDF7D6F82ED2002D85
:1037900003DA4FF48010F0400544BD43002425E0D7
:1037A000332EC8BFBDE8F081A6F1140C4FF0FF37EF
:1037B00027FA0CF73C4208BFBDE8F081FCF7E0FDBA
:1037C00000221346FDF7B8F810D2002D0DDA142EA2
:1037D00008BF6D1C09D0C6F13400012101FA00F0C8
:1037E0002044A04238BF6D1C0446BC4329462046F5
:1037F000BDE8F0819C7500883CE4377E0000F0BF96
:10380000FFFF0F0092B0FDF799FBFDF7E5FB02A863
:10381000FEF716FF4FF07E500523154A0021009059
:1038200002A8FDF711FD6420FDF797FB11480B235B
:10383000114A1249009002A8FDF706FD6420FDF729
:103840008CFB4FF07E500023094A1146009002A8DD
:10385000FDF7FAFC6420FDF780FB4FF07E50062355
:10386000034A0749009002A8FDF7EEFC00BFFEE7FF
:103870000000C8416666663F0000F04100009041CC
:103880000000344200B5254B21F0004287B09A4237
:1038900003DC0022134600922BE0214B9A4208D110
:1038A00040B94FF00100FFF71FFBFFF73EFA07B0EA
:1038B00000BD03DBFFF734FA07B000BD02AAFEF734
:1038C00021FF10F003014FF001000DD0012914D0A9
:1038D00002291AD00DF1080C9CE80F00FFF7D6F86A
:1038E00007B081F0004100BD0DF1080C00909CE88C
:1038F0000F00FFF79FF907B000BD0DF1080C9CE821
:103900000F00FFF7C3F807B000BD0DF1080C0090E1
:103910009CE80F00FFF78EF9E2E70000FB21E93F8A
:103920000000F07F2DE9F8430446024652486946FC
:10393000B0EB420F09D94FF0E640B0EB420F94BF15
:1039400000204FF0FF30009030E04C4B22F0004060
:10395000834271D94A492046FCF73CFCFCF7F0FE53
:103960008046FCF7D0FF00F0030000904549404638
:10397000FCF730FC054644494046FCF72BFC064664
:1039800042494046FCF726FC074641494046FCF7C1
:1039900021FC2146FCF71BFC3946FCF715FC31469F
:1039A000FCF712FC2946FCF70FFC04462546009C58
:1039B000002C45DB294614F0010F08461ED0FCF709
:1039C00009FC05463349FCF705FC3349FCF7AAFB23
:1039D0002946FCF7FFFB3149FCF7A4FB2946FCF71D
:1039E000F9FB4FF07E51FCF79DFB14F0020F08BF6E
:1039F000BDE8F88380F00040BDE8F883FCF7EAFBFF
:103A000006462749FCF7E6FB2649FCF7E0FB314672
:103A1000FCF7E0FB2449FCF785FB3146FCF7DAFBB9
:103A20002946FCF7D7FB2946FCF77CFB14F0020F74
:103A3000E0D1BDE8F883FFE71046FFF791F9B4E75E
:103A40006800B0F17F4F09D22846FEF747FE0428F0
:103A500008BFFFF780F92846BDE8F88306D10120AA
:103A6000FFF742FABDE8F843FFF771B92846BDE811
:103A7000F843FFF769B90000B61F927E490E494628
:103A800083F9223F1A61342C0020A23300A0FD39B3
:103A90000000C93FB93AB2BACA9F2A3DDDFFFFBE56
:103AA000336D4C39DA82083CA0AA2ABE2DE9F041D8
:103AB00006460F46FCF7D6FE04000D4618BF01204F
:103AC000284320F00040C0F17F6000F1E040C00FCB
:103AD0000ED0301C18BF0120384320F00040C0F148
:103AE0007F6000F1E040C00F04BF0120FFF7FCF948
:103AF00020462946BDE8F081555555555555C53FD9
:103B00007D6FEB0312D6D4BF5544880E55C1C93F13
:103B10003B8F68B52882A4BF88B20175E0EF493FAA
:103B200009F7FD0DE13D023F4B2D8A1C273A03C0EA
:103B3000C88A599CE52A004059018D1B6C06E6BFD6
:103B400082922EB1C5B8B33F4FBB610567ACDD3F74
:103B5000182D4454FB21E93F9BF681D20B73EF3FB4
:103B6000182D4454FB21F93FE2652F227F2B7A3C2C
:103B7000075C143326A6813CBDCBF07A8807703CE5
:103B8000075C143326A6913CC4EB98999999C9BF58
:103B9000711623FEC671BCBF6D9A74AFF2B0B3BF8D
:103BA0009AFDDE522DDEADBF2F6C6A2C44B4A2BF4D
:103BB0000D5555555555D53FFF8300922449C23FB9
:103BC0006E204CC5CD45B73F513DD0A0660DB13FED
:103BD000EB0D76244B7BA93F11DA22E33AAD903FFF
:103BE0004C5555555555A53F7751C1166CC156BF1B
:103BF0009015CB19A001FA3EAD529C804F7E92BE2B
:103C0000C4B1B4BD9EEE213ED43888BEE9FAA8BD49
:103C1000000000000000000000004054FB21F93FBC
:103C20003163621A61B4D03D0000601A61B4D03DC6
:103C30007370032E8A19A33B0000002E8A19A33B40
:103C4000C14920259A837B39000000000000000054
:103C50006E83F9A22915444ED15727FCC0DD34F5F7
:103C6000999562DB4190433CAB6351FE61C5BBDE7D
:103C70003A6E24B7E0D24D42EA2E49061C92D10991
:103C80001CEB1DFE3EA729B1F53582E88444BB2E0E
:103C900026709CE9417E5FB439D69139F43953835B
:103CA0008B5F849C3B28F9BDFF97F81F0F9805DEBA
:103CB0008B112FEF1F6D0A5ACF7E366DB709CB27B8
:103CC000663F464F2DEA5F9EC7BA27757BF1E5EB4D
:103CD000F739073DEA92528AB15FFB6B085D8D1F91
:103CE000000000006E83F9A22915444ED15727FC2D
:103CF000C0DD34F5999562DB4190433CAB6351FEE6
:103D0000A6F810111111813FD561C119A0012ABF78
:103D10007DFEB157E31DC73EEB9C2B8AE6E55ABEFC
:103D20007CD5CF5A3AD9E53D483D00080000002037
:103D300004000000C82E00084C3D000804000020CC
:0C3D400004040000D82E00080000000061
:04000005080000ED02
:00000001FF
